{
  "_format": "hh-sol-artifact-1",
  "contractName": "TokenFactory",
  "sourceName": "contracts/TGE.sol",
  "abi": [
    {
      "anonymous": false,
      "inputs": [
        {
          "indexed": true,
          "internalType": "address",
          "name": "creator",
          "type": "address"
        },
        {
          "indexed": false,
          "internalType": "address",
          "name": "tokenAddress",
          "type": "address"
        },
        {
          "indexed": false,
          "internalType": "string",
          "name": "name",
          "type": "string"
        },
        {
          "indexed": false,
          "internalType": "string",
          "name": "symbol",
          "type": "string"
        }
      ],
      "name": "TokenCreated",
      "type": "event"
    },
    {
      "inputs": [
        {
          "internalType": "string",
          "name": "name",
          "type": "string"
        },
        {
          "internalType": "string",
          "name": "symbol",
          "type": "string"
        },
        {
          "internalType": "uint256",
          "name": "initialSupply",
          "type": "uint256"
        }
      ],
      "name": "createToken",
      "outputs": [
        {
          "internalType": "address",
          "name": "",
          "type": "address"
        }
      ],
      "stateMutability": "nonpayable",
      "type": "function"
    },
    {
      "inputs": [
        {
          "internalType": "uint256",
          "name": "",
          "type": "uint256"
        }
      ],
      "name": "createdTokens",
      "outputs": [
        {
          "internalType": "address",
          "name": "",
          "type": "address"
        }
      ],
      "stateMutability": "view",
      "type": "function"
    },
    {
      "inputs": [],
      "name": "getCreatedTokens",
      "outputs": [
        {
          "internalType": "address[]",
          "name": "",
          "type": "address[]"
        }
      ],
      "stateMutability": "view",
      "type": "function"
    }
  ],
  "bytecode": "0x608060405234801561001057600080fd5b50612391806100206000396000f3fe60806040523480156200001157600080fd5b5060043610620000465760003560e01c80635b060530146200004b57806397a2af7c1462000081578063d782d64714620000a3575b600080fd5b6200006960048036038101906200006391906200046e565b620000d9565b6040516200007891906200054d565b60405180910390f35b6200008b620001df565b6040516200009a919062000638565b60405180910390f35b620000c16004803603810190620000bb91906200065c565b6200026f565b604051620000d091906200054d565b60405180910390f35b60008084848433604051620000ee90620002af565b620000fd949392919062000728565b604051809103906000f0801580156200011a573d6000803e3d6000fd5b5090506000819080600181540180825580915050600190039060005260206000200160009091909190916101000a81548173ffffffffffffffffffffffffffffffffffffffff021916908373ffffffffffffffffffffffffffffffffffffffff1602179055503373ffffffffffffffffffffffffffffffffffffffff167fd5d05a8421149c74fd223cfc823befb883babf9bf0b0e4d6bf9c8fdb70e59bb4828787604051620001cc9392919062000783565b60405180910390a2809150509392505050565b606060008054806020026020016040519081016040528092919081815260200182805480156200026557602002820191906000526020600020905b8160009054906101000a900473ffffffffffffffffffffffffffffffffffffffff1673ffffffffffffffffffffffffffffffffffffffff16815260200190600101908083116200021a575b5050505050905090565b600081815481106200028057600080fd5b906000526020600020016000915054906101000a900473ffffffffffffffffffffffffffffffffffffffff1681565b611b8d80620007cf83390190565b6000604051905090565b600080fd5b600080fd5b600080fd5b600080fd5b6000601f19601f8301169050919050565b7f4e487b7100000000000000000000000000000000000000000000000000000000600052604160045260246000fd5b6200032682620002db565b810181811067ffffffffffffffff82111715620003485762000347620002ec565b5b80604052505050565b60006200035d620002bd565b90506200036b82826200031b565b919050565b600067ffffffffffffffff8211156200038e576200038d620002ec565b5b6200039982620002db565b9050602081019050919050565b82818337600083830152505050565b6000620003cc620003c68462000370565b62000351565b905082815260208101848484011115620003eb57620003ea620002d6565b5b620003f8848285620003a6565b509392505050565b600082601f830112620004185762000417620002d1565b5b81356200042a848260208601620003b5565b91505092915050565b6000819050919050565b620004488162000433565b81146200045457600080fd5b50565b60008135905062000468816200043d565b92915050565b6000806000606084860312156200048a5762000489620002c7565b5b600084013567ffffffffffffffff811115620004ab57620004aa620002cc565b5b620004b98682870162000400565b935050602084013567ffffffffffffffff811115620004dd57620004dc620002cc565b5b620004eb8682870162000400565b9250506040620004fe8682870162000457565b9150509250925092565b600073ffffffffffffffffffffffffffffffffffffffff82169050919050565b6000620005358262000508565b9050919050565b620005478162000528565b82525050565b60006020820190506200056460008301846200053c565b92915050565b600081519050919050565b600082825260208201905092915050565b6000819050602082019050919050565b620005a18162000528565b82525050565b6000620005b5838362000596565b60208301905092915050565b6000602082019050919050565b6000620005db826200056a565b620005e7818562000575565b9350620005f48362000586565b8060005b838110156200062b5781516200060f8882620005a7565b97506200061c83620005c1565b925050600181019050620005f8565b5085935050505092915050565b60006020820190508181036000830152620006548184620005ce565b905092915050565b600060208284031215620006755762000674620002c7565b5b6000620006858482850162000457565b91505092915050565b600081519050919050565b600082825260208201905092915050565b60005b83811015620006ca578082015181840152602081019050620006ad565b60008484015250505050565b6000620006e3826200068e565b620006ef818562000699565b935062000701818560208601620006aa565b6200070c81620002db565b840191505092915050565b620007228162000433565b82525050565b60006080820190508181036000830152620007448187620006d6565b905081810360208301526200075a8186620006d6565b90506200076b604083018562000717565b6200077a60608301846200053c565b95945050505050565b60006060820190506200079a60008301866200053c565b8181036020830152620007ae8185620006d6565b90508181036040830152620007c48184620006d6565b905094935050505056fe60806040523480156200001157600080fd5b5060405162001b8d38038062001b8d833981810160405281019062000037919062000601565b838381600390816200004a9190620008f2565b5080600490816200005c9190620008f2565b50505080600560006101000a81548173ffffffffffffffffffffffffffffffffffffffff021916908373ffffffffffffffffffffffffffffffffffffffff160217905550620000fe600560009054906101000a900473ffffffffffffffffffffffffffffffffffffffff16620000d76200010860201b60201c565b600a620000e5919062000b69565b84620000f2919062000bba565b6200011160201b60201c565b5050505062000cd9565b60006012905090565b600073ffffffffffffffffffffffffffffffffffffffff168273ffffffffffffffffffffffffffffffffffffffff1603620001865760006040517fec442f050000000000000000000000000000000000000000000000000000000081526004016200017d919062000c16565b60405180910390fd5b6200019a600083836200019e60201b60201c565b5050565b600073ffffffffffffffffffffffffffffffffffffffff168373ffffffffffffffffffffffffffffffffffffffff1603620001f4578060026000828254620001e7919062000c33565b92505081905550620002ca565b60008060008573ffffffffffffffffffffffffffffffffffffffff1673ffffffffffffffffffffffffffffffffffffffff1681526020019081526020016000205490508181101562000283578381836040517fe450d38c0000000000000000000000000000000000000000000000000000000081526004016200027a9392919062000c7f565b60405180910390fd5b8181036000808673ffffffffffffffffffffffffffffffffffffffff1673ffffffffffffffffffffffffffffffffffffffff16815260200190815260200160002081905550505b600073ffffffffffffffffffffffffffffffffffffffff168273ffffffffffffffffffffffffffffffffffffffff160362000315578060026000828254039250508190555062000362565b806000808473ffffffffffffffffffffffffffffffffffffffff1673ffffffffffffffffffffffffffffffffffffffff168152602001908152602001600020600082825401925050819055505b8173ffffffffffffffffffffffffffffffffffffffff168373ffffffffffffffffffffffffffffffffffffffff167fddf252ad1be2c89b69c2b068fc378daa952ba7f163c4a11628f55a4df523b3ef83604051620003c1919062000cbc565b60405180910390a3505050565b6000604051905090565b600080fd5b600080fd5b600080fd5b600080fd5b6000601f19601f8301169050919050565b7f4e487b7100000000000000000000000000000000000000000000000000000000600052604160045260246000fd5b6200043782620003ec565b810181811067ffffffffffffffff82111715620004595762000458620003fd565b5b80604052505050565b60006200046e620003ce565b90506200047c82826200042c565b919050565b600067ffffffffffffffff8211156200049f576200049e620003fd565b5b620004aa82620003ec565b9050602081019050919050565b60005b83811015620004d7578082015181840152602081019050620004ba565b60008484015250505050565b6000620004fa620004f48462000481565b62000462565b905082815260208101848484011115620005195762000518620003e7565b5b62000526848285620004b7565b509392505050565b600082601f830112620005465762000545620003e2565b5b815162000558848260208601620004e3565b91505092915050565b6000819050919050565b620005768162000561565b81146200058257600080fd5b50565b60008151905062000596816200056b565b92915050565b600073ffffffffffffffffffffffffffffffffffffffff82169050919050565b6000620005c9826200059c565b9050919050565b620005db81620005bc565b8114620005e757600080fd5b50565b600081519050620005fb81620005d0565b92915050565b600080600080608085870312156200061e576200061d620003d8565b5b600085015167ffffffffffffffff8111156200063f576200063e620003dd565b5b6200064d878288016200052e565b945050602085015167ffffffffffffffff811115620006715762000670620003dd565b5b6200067f878288016200052e565b9350506040620006928782880162000585565b9250506060620006a587828801620005ea565b91505092959194509250565b600081519050919050565b7f4e487b7100000000000000000000000000000000000000000000000000000000600052602260045260246000fd5b600060028204905060018216806200070457607f821691505b6020821081036200071a5762000719620006bc565b5b50919050565b60008190508160005260206000209050919050565b60006020601f8301049050919050565b600082821b905092915050565b600060088302620007847fffffffffffffffffffffffffffffffffffffffffffffffffffffffffffffffff8262000745565b62000790868362000745565b95508019841693508086168417925050509392505050565b6000819050919050565b6000620007d3620007cd620007c78462000561565b620007a8565b62000561565b9050919050565b6000819050919050565b620007ef83620007b2565b62000807620007fe82620007da565b84845462000752565b825550505050565b600090565b6200081e6200080f565b6200082b818484620007e4565b505050565b5b8181101562000853576200084760008262000814565b60018101905062000831565b5050565b601f821115620008a2576200086c8162000720565b620008778462000735565b8101602085101562000887578190505b6200089f620008968562000735565b83018262000830565b50505b505050565b600082821c905092915050565b6000620008c760001984600802620008a7565b1980831691505092915050565b6000620008e28383620008b4565b9150826002028217905092915050565b620008fd82620006b1565b67ffffffffffffffff811115620009195762000918620003fd565b5b620009258254620006eb565b6200093282828562000857565b600060209050601f8311600181146200096a576000841562000955578287015190505b620009618582620008d4565b865550620009d1565b601f1984166200097a8662000720565b60005b82811015620009a4578489015182556001820191506020850194506020810190506200097d565b86831015620009c45784890151620009c0601f891682620008b4565b8355505b6001600288020188555050505b505050505050565b7f4e487b7100000000000000000000000000000000000000000000000000000000600052601160045260246000fd5b60008160011c9050919050565b6000808291508390505b600185111562000a675780860481111562000a3f5762000a3e620009d9565b5b600185161562000a4f5780820291505b808102905062000a5f8562000a08565b945062000a1f565b94509492505050565b60008262000a82576001905062000b55565b8162000a92576000905062000b55565b816001811462000aab576002811462000ab65762000aec565b600191505062000b55565b60ff84111562000acb5762000aca620009d9565b5b8360020a91508482111562000ae55762000ae4620009d9565b5b5062000b55565b5060208310610133831016604e8410600b841016171562000b265782820a90508381111562000b205762000b1f620009d9565b5b62000b55565b62000b35848484600162000a15565b9250905081840481111562000b4f5762000b4e620009d9565b5b81810290505b9392505050565b600060ff82169050919050565b600062000b768262000561565b915062000b838362000b5c565b925062000bb27fffffffffffffffffffffffffffffffffffffffffffffffffffffffffffffffff848462000a70565b905092915050565b600062000bc78262000561565b915062000bd48362000561565b925082820262000be48162000561565b9150828204841483151762000bfe5762000bfd620009d9565b5b5092915050565b62000c1081620005bc565b82525050565b600060208201905062000c2d600083018462000c05565b92915050565b600062000c408262000561565b915062000c4d8362000561565b925082820190508082111562000c685762000c67620009d9565b5b92915050565b62000c798162000561565b82525050565b600060608201905062000c96600083018662000c05565b62000ca5602083018562000c6e565b62000cb4604083018462000c6e565b949350505050565b600060208201905062000cd3600083018462000c6e565b92915050565b610ea48062000ce96000396000f3fe608060405234801561001057600080fd5b506004361061009e5760003560e01c8063313ce56711610066578063313ce5671461015d57806370a082311461017b57806395d89b41146101ab578063a9059cbb146101c9578063dd62ed3e146101f95761009e565b806302d05d3f146100a357806306fdde03146100c1578063095ea7b3146100df57806318160ddd1461010f57806323b872dd1461012d575b600080fd5b6100ab610229565b6040516100b89190610aa9565b60405180910390f35b6100c961024f565b6040516100d69190610b54565b60405180910390f35b6100f960048036038101906100f49190610bdd565b6102e1565b6040516101069190610c38565b60405180910390f35b610117610304565b6040516101249190610c62565b60405180910390f35b61014760048036038101906101429190610c7d565b61030e565b6040516101549190610c38565b60405180910390f35b61016561033d565b6040516101729190610cec565b60405180910390f35b61019560048036038101906101909190610d07565b610346565b6040516101a29190610c62565b60405180910390f35b6101b361038e565b6040516101c09190610b54565b60405180910390f35b6101e360048036038101906101de9190610bdd565b610420565b6040516101f09190610c38565b60405180910390f35b610213600480360381019061020e9190610d34565b610443565b6040516102209190610c62565b60405180910390f35b600560009054906101000a900473ffffffffffffffffffffffffffffffffffffffff1681565b60606003805461025e90610da3565b80601f016020809104026020016040519081016040528092919081815260200182805461028a90610da3565b80156102d75780601f106102ac576101008083540402835291602001916102d7565b820191906000526020600020905b8154815290600101906020018083116102ba57829003601f168201915b5050505050905090565b6000806102ec6104ca565b90506102f98185856104d2565b600191505092915050565b6000600254905090565b6000806103196104ca565b90506103268582856104e4565b610331858585610578565b60019150509392505050565b60006012905090565b60008060008373ffffffffffffffffffffffffffffffffffffffff1673ffffffffffffffffffffffffffffffffffffffff168152602001908152602001600020549050919050565b60606004805461039d90610da3565b80601f01602080910402602001604051908101604052809291908181526020018280546103c990610da3565b80156104165780601f106103eb57610100808354040283529160200191610416565b820191906000526020600020905b8154815290600101906020018083116103f957829003601f168201915b5050505050905090565b60008061042b6104ca565b9050610438818585610578565b600191505092915050565b6000600160008473ffffffffffffffffffffffffffffffffffffffff1673ffffffffffffffffffffffffffffffffffffffff16815260200190815260200160002060008373ffffffffffffffffffffffffffffffffffffffff1673ffffffffffffffffffffffffffffffffffffffff16815260200190815260200160002054905092915050565b600033905090565b6104df838383600161066c565b505050565b60006104f08484610443565b90507fffffffffffffffffffffffffffffffffffffffffffffffffffffffffffffffff81146105725781811015610562578281836040517ffb8f41b200000000000000000000000000000000000000000000000000000000815260040161055993929190610dd4565b60405180910390fd5b6105718484848403600061066c565b5b50505050565b600073ffffffffffffffffffffffffffffffffffffffff168373ffffffffffffffffffffffffffffffffffffffff16036105ea5760006040517f96c6fd1e0000000000000000000000000000000000000000000000000000000081526004016105e19190610aa9565b60405180910390fd5b600073ffffffffffffffffffffffffffffffffffffffff168273ffffffffffffffffffffffffffffffffffffffff160361065c5760006040517fec442f050000000000000000000000000000000000000000000000000000000081526004016106539190610aa9565b60405180910390fd5b610667838383610843565b505050565b600073ffffffffffffffffffffffffffffffffffffffff168473ffffffffffffffffffffffffffffffffffffffff16036106de5760006040517fe602df050000000000000000000000000000000000000000000000000000000081526004016106d59190610aa9565b60405180910390fd5b600073ffffffffffffffffffffffffffffffffffffffff168373ffffffffffffffffffffffffffffffffffffffff16036107505760006040517f94280d620000000000000000000000000000000000000000000000000000000081526004016107479190610aa9565b60405180910390fd5b81600160008673ffffffffffffffffffffffffffffffffffffffff1673ffffffffffffffffffffffffffffffffffffffff16815260200190815260200160002060008573ffffffffffffffffffffffffffffffffffffffff1673ffffffffffffffffffffffffffffffffffffffff16815260200190815260200160002081905550801561083d578273ffffffffffffffffffffffffffffffffffffffff168473ffffffffffffffffffffffffffffffffffffffff167f8c5be1e5ebec7d5bd14f71427d1e84f3dd0314c0f7b2291e5b200ac8c7c3b925846040516108349190610c62565b60405180910390a35b50505050565b600073ffffffffffffffffffffffffffffffffffffffff168373ffffffffffffffffffffffffffffffffffffffff16036108955780600260008282546108899190610e3a565b92505081905550610968565b60008060008573ffffffffffffffffffffffffffffffffffffffff1673ffffffffffffffffffffffffffffffffffffffff16815260200190815260200160002054905081811015610921578381836040517fe450d38c00000000000000000000000000000000000000000000000000000000815260040161091893929190610dd4565b60405180910390fd5b8181036000808673ffffffffffffffffffffffffffffffffffffffff1673ffffffffffffffffffffffffffffffffffffffff16815260200190815260200160002081905550505b600073ffffffffffffffffffffffffffffffffffffffff168273ffffffffffffffffffffffffffffffffffffffff16036109b157806002600082825403925050819055506109fe565b806000808473ffffffffffffffffffffffffffffffffffffffff1673ffffffffffffffffffffffffffffffffffffffff168152602001908152602001600020600082825401925050819055505b8173ffffffffffffffffffffffffffffffffffffffff168373ffffffffffffffffffffffffffffffffffffffff167fddf252ad1be2c89b69c2b068fc378daa952ba7f163c4a11628f55a4df523b3ef83604051610a5b9190610c62565b60405180910390a3505050565b600073ffffffffffffffffffffffffffffffffffffffff82169050919050565b6000610a9382610a68565b9050919050565b610aa381610a88565b82525050565b6000602082019050610abe6000830184610a9a565b92915050565b600081519050919050565b600082825260208201905092915050565b60005b83811015610afe578082015181840152602081019050610ae3565b60008484015250505050565b6000601f19601f8301169050919050565b6000610b2682610ac4565b610b308185610acf565b9350610b40818560208601610ae0565b610b4981610b0a565b840191505092915050565b60006020820190508181036000830152610b6e8184610b1b565b905092915050565b600080fd5b610b8481610a88565b8114610b8f57600080fd5b50565b600081359050610ba181610b7b565b92915050565b6000819050919050565b610bba81610ba7565b8114610bc557600080fd5b50565b600081359050610bd781610bb1565b92915050565b60008060408385031215610bf457610bf3610b76565b5b6000610c0285828601610b92565b9250506020610c1385828601610bc8565b9150509250929050565b60008115159050919050565b610c3281610c1d565b82525050565b6000602082019050610c4d6000830184610c29565b92915050565b610c5c81610ba7565b82525050565b6000602082019050610c776000830184610c53565b92915050565b600080600060608486031215610c9657610c95610b76565b5b6000610ca486828701610b92565b9350506020610cb586828701610b92565b9250506040610cc686828701610bc8565b9150509250925092565b600060ff82169050919050565b610ce681610cd0565b82525050565b6000602082019050610d016000830184610cdd565b92915050565b600060208284031215610d1d57610d1c610b76565b5b6000610d2b84828501610b92565b91505092915050565b60008060408385031215610d4b57610d4a610b76565b5b6000610d5985828601610b92565b9250506020610d6a85828601610b92565b9150509250929050565b7f4e487b7100000000000000000000000000000000000000000000000000000000600052602260045260246000fd5b60006002820490506001821680610dbb57607f821691505b602082108103610dce57610dcd610d74565b5b50919050565b6000606082019050610de96000830186610a9a565b610df66020830185610c53565b610e036040830184610c53565b949350505050565b7f4e487b7100000000000000000000000000000000000000000000000000000000600052601160045260246000fd5b6000610e4582610ba7565b9150610e5083610ba7565b9250828201905080821115610e6857610e67610e0b565b5b9291505056fea2646970667358221220c974368c42b68e5f59881923b76d9d32bb7799e21c793001d8ea9ccd88beda8964736f6c63430008140033a2646970667358221220ab0d4fa1d6246feaf3cbbfcded4f0b08b15e7bdb5d91fbcf78c22135e15e866d64736f6c63430008140033",
  "linkReferences": {},
  "deployedLinkReferences": {}
}