{
  "_format": "hh-sol-artifact-1",
  "contractName": "LiquidityPoolFactory",
  "sourceName": "contracts/LiquidityPoolFactory.sol",
  "abi": [
    {
      "anonymous": false,
      "inputs": [
        {
          "indexed": true,
          "internalType": "address",
          "name": "tokenA",
          "type": "address"
        },
        {
          "indexed": true,
          "internalType": "address",
          "name": "tokenB",
          "type": "address"
        },
        {
          "indexed": false,
          "internalType": "address",
          "name": "pool",
          "type": "address"
        }
      ],
      "name": "PoolCreated",
      "type": "event"
    },
    {
      "inputs": [
        {
          "internalType": "uint256",
          "name": "",
          "type": "uint256"
        }
      ],
      "name": "allPools",
      "outputs": [
        {
          "internalType": "address",
          "name": "",
          "type": "address"
        }
      ],
      "stateMutability": "view",
      "type": "function"
    },
    {
      "inputs": [
        {
          "internalType": "address",
          "name": "tokenA",
          "type": "address"
        },
        {
          "internalType": "address",
          "name": "tokenB",
          "type": "address"
        }
      ],
      "name": "createPool",
      "outputs": [
        {
          "internalType": "address",
          "name": "",
          "type": "address"
        }
      ],
      "stateMutability": "nonpayable",
      "type": "function"
    },
    {
      "inputs": [],
      "name": "getAllPools",
      "outputs": [
        {
          "internalType": "address[]",
          "name": "",
          "type": "address[]"
        }
      ],
      "stateMutability": "view",
      "type": "function"
    },
    {
      "inputs": [
        {
          "internalType": "address",
          "name": "",
          "type": "address"
        },
        {
          "internalType": "address",
          "name": "",
          "type": "address"
        }
      ],
      "name": "getPool",
      "outputs": [
        {
          "internalType": "address",
          "name": "",
          "type": "address"
        }
      ],
      "stateMutability": "view",
      "type": "function"
    }
  ],
  "bytecode": "0x608060405234801561001057600080fd5b5061214e806100206000396000f3fe608060405234801561001057600080fd5b506004361061004c5760003560e01c806341d1de9714610051578063531aa03e14610081578063d88ff1f4146100b1578063e3433615146100cf575b600080fd5b61006b60048036038101906100669190610650565b6100ff565b60405161007891906106be565b60405180910390f35b61009b60048036038101906100969190610705565b61013e565b6040516100a891906106be565b60405180910390f35b6100b9610180565b6040516100c69190610803565b60405180910390f35b6100e960048036038101906100e49190610705565b61020e565b6040516100f691906106be565b60405180910390f35b6001818154811061010f57600080fd5b906000526020600020016000915054906101000a900473ffffffffffffffffffffffffffffffffffffffff1681565b60006020528160005260406000206020528060005260406000206000915091509054906101000a900473ffffffffffffffffffffffffffffffffffffffff1681565b6060600180548060200260200160405190810160405280929190818152602001828054801561020457602002820191906000526020600020905b8160009054906101000a900473ffffffffffffffffffffffffffffffffffffffff1673ffffffffffffffffffffffffffffffffffffffff16815260200190600101908083116101ba575b5050505050905090565b60008173ffffffffffffffffffffffffffffffffffffffff168373ffffffffffffffffffffffffffffffffffffffff160361027e576040517f08c379a000000000000000000000000000000000000000000000000000000000815260040161027590610882565b60405180910390fd5b600073ffffffffffffffffffffffffffffffffffffffff166000808573ffffffffffffffffffffffffffffffffffffffff1673ffffffffffffffffffffffffffffffffffffffff16815260200190815260200160002060008473ffffffffffffffffffffffffffffffffffffffff1673ffffffffffffffffffffffffffffffffffffffff16815260200190815260200160002060009054906101000a900473ffffffffffffffffffffffffffffffffffffffff1673ffffffffffffffffffffffffffffffffffffffff1614610388576040517f08c379a000000000000000000000000000000000000000000000000000000000815260040161037f906108ee565b60405180910390fd5b6000838360405161039890610608565b6103a392919061090e565b604051809103906000f0801580156103bf573d6000803e3d6000fd5b509050806000808673ffffffffffffffffffffffffffffffffffffffff1673ffffffffffffffffffffffffffffffffffffffff16815260200190815260200160002060008573ffffffffffffffffffffffffffffffffffffffff1673ffffffffffffffffffffffffffffffffffffffff16815260200190815260200160002060006101000a81548173ffffffffffffffffffffffffffffffffffffffff021916908373ffffffffffffffffffffffffffffffffffffffff160217905550806000808573ffffffffffffffffffffffffffffffffffffffff1673ffffffffffffffffffffffffffffffffffffffff16815260200190815260200160002060008673ffffffffffffffffffffffffffffffffffffffff1673ffffffffffffffffffffffffffffffffffffffff16815260200190815260200160002060006101000a81548173ffffffffffffffffffffffffffffffffffffffff021916908373ffffffffffffffffffffffffffffffffffffffff1602179055506001819080600181540180825580915050600190039060005260206000200160009091909190916101000a81548173ffffffffffffffffffffffffffffffffffffffff021916908373ffffffffffffffffffffffffffffffffffffffff1602179055508273ffffffffffffffffffffffffffffffffffffffff168473ffffffffffffffffffffffffffffffffffffffff167f9c5d829b9b23efc461f9aeef91979ec04bb903feb3bee4f26d22114abfc7335b836040516105f691906106be565b60405180910390a38091505092915050565b6117e18061093883390190565b600080fd5b6000819050919050565b61062d8161061a565b811461063857600080fd5b50565b60008135905061064a81610624565b92915050565b60006020828403121561066657610665610615565b5b60006106748482850161063b565b91505092915050565b600073ffffffffffffffffffffffffffffffffffffffff82169050919050565b60006106a88261067d565b9050919050565b6106b88161069d565b82525050565b60006020820190506106d360008301846106af565b92915050565b6106e28161069d565b81146106ed57600080fd5b50565b6000813590506106ff816106d9565b92915050565b6000806040838503121561071c5761071b610615565b5b600061072a858286016106f0565b925050602061073b858286016106f0565b9150509250929050565b600081519050919050565b600082825260208201905092915050565b6000819050602082019050919050565b61077a8161069d565b82525050565b600061078c8383610771565b60208301905092915050565b6000602082019050919050565b60006107b082610745565b6107ba8185610750565b93506107c583610761565b8060005b838110156107f65781516107dd8882610780565b97506107e883610798565b9250506001810190506107c9565b5085935050505092915050565b6000602082019050818103600083015261081d81846107a5565b905092915050565b600082825260208201905092915050565b7f546f6b656e73206d75737420626520646966666572656e740000000000000000600082015250565b600061086c601883610825565b915061087782610836565b602082019050919050565b6000602082019050818103600083015261089b8161085f565b9050919050565b7f506f6f6c20616c72656164792065786973747300000000000000000000000000600082015250565b60006108d8601383610825565b91506108e3826108a2565b602082019050919050565b60006020820190508181036000830152610907816108cb565b9050919050565b600060408201905061092360008301856106af565b61093060208301846106af565b939250505056fe60c06040523480156200001157600080fd5b50604051620017e1380380620017e1833981810160405281019062000037919062000111565b8173ffffffffffffffffffffffffffffffffffffffff1660808173ffffffffffffffffffffffffffffffffffffffff16815250508073ffffffffffffffffffffffffffffffffffffffff1660a08173ffffffffffffffffffffffffffffffffffffffff1681525050505062000158565b600080fd5b600073ffffffffffffffffffffffffffffffffffffffff82169050919050565b6000620000d982620000ac565b9050919050565b620000eb81620000cc565b8114620000f757600080fd5b50565b6000815190506200010b81620000e0565b92915050565b600080604083850312156200012b576200012a620000a7565b5b60006200013b85828601620000fa565b92505060206200014e85828601620000fa565b9150509250929050565b60805160a051611616620001cb600039600081816101c9015281816103ed01528181610684015281816108b801526109c201526000818161019f0152818161034e015281816105a501528181610863015281816109490152818161099c015281816109e90152610c8101526116166000f3fe608060405234801561001057600080fd5b50600436106100885760003560e01c80639cd441da1161005b5780639cd441da14610103578063b8c876b11461011f578063d004f0f71461014f578063dc5fa6c51461017f57610088565b80630fc63d101461008d57806319e36f3b146100ab5780635f64b55b146100c95780639c8f9f23146100e7575b600080fd5b61009561019d565b6040516100a29190610e0a565b60405180910390f35b6100b36101c1565b6040516100c09190610e3e565b60405180910390f35b6100d16101c7565b6040516100de9190610e0a565b60405180910390f35b61010160048036038101906100fc9190610e8a565b6101eb565b005b61011d60048036038101906101189190610eb7565b6104df565b005b61013960048036038101906101349190610f23565b610847565b6040516101469190610e3e565b60405180910390f35b61016960048036038101906101649190610f50565b61085f565b6040516101769190610e3e565b60405180910390f35b610187610dc3565b6040516101949190610e3e565b60405180910390f35b7f000000000000000000000000000000000000000000000000000000000000000081565b60015481565b7f000000000000000000000000000000000000000000000000000000000000000081565b80600260003373ffffffffffffffffffffffffffffffffffffffff1673ffffffffffffffffffffffffffffffffffffffff16815260200190815260200160002054101561026d576040517f08c379a000000000000000000000000000000000000000000000000000000000815260040161026490610fed565b60405180910390fd5b600060015460005461027f919061103c565b6000548361028d9190611070565b61029791906110e1565b905060006001546000546102ab919061103c565b600154846102b99190611070565b6102c391906110e1565b9050816000808282546102d69190611112565b9250508190555080600160008282546102ef9190611112565b9250508190555082600260003373ffffffffffffffffffffffffffffffffffffffff1673ffffffffffffffffffffffffffffffffffffffff16815260200190815260200160002060008282546103459190611112565b925050819055507f000000000000000000000000000000000000000000000000000000000000000073ffffffffffffffffffffffffffffffffffffffff1663a9059cbb33846040518363ffffffff1660e01b81526004016103a7929190611146565b6020604051808303816000875af11580156103c6573d6000803e3d6000fd5b505050506040513d601f19601f820116820180604052508101906103ea91906111a7565b507f000000000000000000000000000000000000000000000000000000000000000073ffffffffffffffffffffffffffffffffffffffff1663a9059cbb33836040518363ffffffff1660e01b8152600401610446929190611146565b6020604051808303816000875af1158015610465573d6000803e3d6000fd5b505050506040513d601f19601f8201168201806040525081019061048991906111a7565b503373ffffffffffffffffffffffffffffffffffffffff167f96cd817c6329656790ef8fba7675405193677d39619571282f5e21f3a98cd05983836040516104d29291906111d4565b60405180910390a2505050565b6000821180156104ef5750600081115b61052e576040517f08c379a00000000000000000000000000000000000000000000000000000000081526004016105259061126f565b60405180910390fd5b6000805411801561054157506000600154115b156105a357600054816105549190611070565b600154836105629190611070565b146105a2576040517f08c379a000000000000000000000000000000000000000000000000000000000815260040161059990611301565b60405180910390fd5b5b7f000000000000000000000000000000000000000000000000000000000000000073ffffffffffffffffffffffffffffffffffffffff166323b872dd3330856040518463ffffffff1660e01b815260040161060093929190611321565b6020604051808303816000875af115801561061f573d6000803e3d6000fd5b505050506040513d601f19601f8201168201806040525081019061064391906111a7565b610682576040517f08c379a0000000000000000000000000000000000000000000000000000000008152600401610679906113a4565b60405180910390fd5b7f000000000000000000000000000000000000000000000000000000000000000073ffffffffffffffffffffffffffffffffffffffff166323b872dd3330846040518463ffffffff1660e01b81526004016106df93929190611321565b6020604051808303816000875af11580156106fe573d6000803e3d6000fd5b505050506040513d601f19601f8201168201806040525081019061072291906111a7565b610761576040517f08c379a000000000000000000000000000000000000000000000000000000000815260040161075890611410565b60405180910390fd5b81600080828254610772919061103c565b92505081905550806001600082825461078b919061103c565b92505081905550808261079e919061103c565b600260003373ffffffffffffffffffffffffffffffffffffffff1673ffffffffffffffffffffffffffffffffffffffff16815260200190815260200160002060008282546107ec919061103c565b925050819055503373ffffffffffffffffffffffffffffffffffffffff167fac1d76749e5447b7b16f5ab61447e1bd502f3bb4807af3b28e620d1700a6ee45838360405161083b9291906111d4565b60405180910390a25050565b60026020528060005260406000206000915090505481565b60007f000000000000000000000000000000000000000000000000000000000000000073ffffffffffffffffffffffffffffffffffffffff168373ffffffffffffffffffffffffffffffffffffffff16148061090657507f000000000000000000000000000000000000000000000000000000000000000073ffffffffffffffffffffffffffffffffffffffff168373ffffffffffffffffffffffffffffffffffffffff16145b610945576040517f08c379a000000000000000000000000000000000000000000000000000000000815260040161093c9061147c565b60405180910390fd5b60007f000000000000000000000000000000000000000000000000000000000000000073ffffffffffffffffffffffffffffffffffffffff168473ffffffffffffffffffffffffffffffffffffffff16146109c0577f00000000000000000000000000000000000000000000000000000000000000006109e2565b7f00000000000000000000000000000000000000000000000000000000000000005b90506000807f000000000000000000000000000000000000000000000000000000000000000073ffffffffffffffffffffffffffffffffffffffff168673ffffffffffffffffffffffffffffffffffffffff1614610a4557600154600054610a4c565b6000546001545b91509150600085118015610a605750818511155b610a9f576040517f08c379a0000000000000000000000000000000000000000000000000000000008152600401610a96906114e8565b60405180910390fd5b60006103e86103e587610ab29190611070565b610abc91906110e1565b905060008184610acc919061103c565b8385610ad89190611070565b610ae291906110e1565b90508083610af09190611112565b9550600086118015610b025750828611155b610b41576040517f08c379a0000000000000000000000000000000000000000000000000000000008152600401610b3890611554565b60405180910390fd5b8773ffffffffffffffffffffffffffffffffffffffff166323b872dd33308a6040518463ffffffff1660e01b8152600401610b7e93929190611321565b6020604051808303816000875af1158015610b9d573d6000803e3d6000fd5b505050506040513d601f19601f82011682018060405250810190610bc191906111a7565b610c00576040517f08c379a0000000000000000000000000000000000000000000000000000000008152600401610bf7906115c0565b60405180910390fd5b8473ffffffffffffffffffffffffffffffffffffffff1663a9059cbb33886040518363ffffffff1660e01b8152600401610c3b929190611146565b6020604051808303816000875af1158015610c5a573d6000803e3d6000fd5b505050506040513d601f19601f82011682018060405250810190610c7e91906111a7565b507f000000000000000000000000000000000000000000000000000000000000000073ffffffffffffffffffffffffffffffffffffffff168873ffffffffffffffffffffffffffffffffffffffff1603610d085786600080828254610ce3919061103c565b925050819055508560016000828254610cfc9190611112565b92505081905550610d3a565b8660016000828254610d1a919061103c565b9250508190555085600080828254610d329190611112565b925050819055505b8473ffffffffffffffffffffffffffffffffffffffff168873ffffffffffffffffffffffffffffffffffffffff163373ffffffffffffffffffffffffffffffffffffffff167f6782190c91d4a7e8ad2a867deed6ec0a970cab8ff137ae2bd4abd92b3810f4d38a8a604051610db09291906111d4565b60405180910390a4505050505092915050565b60005481565b600073ffffffffffffffffffffffffffffffffffffffff82169050919050565b6000610df482610dc9565b9050919050565b610e0481610de9565b82525050565b6000602082019050610e1f6000830184610dfb565b92915050565b6000819050919050565b610e3881610e25565b82525050565b6000602082019050610e536000830184610e2f565b92915050565b600080fd5b610e6781610e25565b8114610e7257600080fd5b50565b600081359050610e8481610e5e565b92915050565b600060208284031215610ea057610e9f610e59565b5b6000610eae84828501610e75565b91505092915050565b60008060408385031215610ece57610ecd610e59565b5b6000610edc85828601610e75565b9250506020610eed85828601610e75565b9150509250929050565b610f0081610de9565b8114610f0b57600080fd5b50565b600081359050610f1d81610ef7565b92915050565b600060208284031215610f3957610f38610e59565b5b6000610f4784828501610f0e565b91505092915050565b60008060408385031215610f6757610f66610e59565b5b6000610f7585828601610f0e565b9250506020610f8685828601610e75565b9150509250929050565b600082825260208201905092915050565b7f496e73756666696369656e74206c697175696469747900000000000000000000600082015250565b6000610fd7601683610f90565b9150610fe282610fa1565b602082019050919050565b6000602082019050818103600083015261100681610fca565b9050919050565b7f4e487b7100000000000000000000000000000000000000000000000000000000600052601160045260246000fd5b600061104782610e25565b915061105283610e25565b925082820190508082111561106a5761106961100d565b5b92915050565b600061107b82610e25565b915061108683610e25565b925082820261109481610e25565b915082820484148315176110ab576110aa61100d565b5b5092915050565b7f4e487b7100000000000000000000000000000000000000000000000000000000600052601260045260246000fd5b60006110ec82610e25565b91506110f783610e25565b925082611107576111066110b2565b5b828204905092915050565b600061111d82610e25565b915061112883610e25565b92508282039050818111156111405761113f61100d565b5b92915050565b600060408201905061115b6000830185610dfb565b6111686020830184610e2f565b9392505050565b60008115159050919050565b6111848161116f565b811461118f57600080fd5b50565b6000815190506111a18161117b565b92915050565b6000602082840312156111bd576111bc610e59565b5b60006111cb84828501611192565b91505092915050565b60006040820190506111e96000830185610e2f565b6111f66020830184610e2f565b9392505050565b7f416d6f756e7473206d7573742062652067726561746572207468616e207a657260008201527f6f00000000000000000000000000000000000000000000000000000000000000602082015250565b6000611259602183610f90565b9150611264826111fd565b604082019050919050565b600060208201905081810360008301526112888161124c565b9050919050565b7f4d75737420616464206c69717569646974792070726f706f7274696f6e616c6c60008201527f7900000000000000000000000000000000000000000000000000000000000000602082015250565b60006112eb602183610f90565b91506112f68261128f565b604082019050919050565b6000602082019050818103600083015261131a816112de565b9050919050565b60006060820190506113366000830186610dfb565b6113436020830185610dfb565b6113506040830184610e2f565b949350505050565b7f546f6b656e2041207472616e73666572206661696c6564000000000000000000600082015250565b600061138e601783610f90565b915061139982611358565b602082019050919050565b600060208201905081810360008301526113bd81611381565b9050919050565b7f546f6b656e2042207472616e73666572206661696c6564000000000000000000600082015250565b60006113fa601783610f90565b9150611405826113c4565b602082019050919050565b60006020820190508181036000830152611429816113ed565b9050919050565b7f496e76616c696420746f6b656e00000000000000000000000000000000000000600082015250565b6000611466600d83610f90565b915061147182611430565b602082019050919050565b6000602082019050818103600083015261149581611459565b9050919050565b7f496e76616c6964207377617020616d6f756e7400000000000000000000000000600082015250565b60006114d2601383610f90565b91506114dd8261149c565b602082019050919050565b60006020820190508181036000830152611501816114c5565b9050919050565b7f496e73756666696369656e74206c697175696469747920666f72207377617000600082015250565b600061153e601f83610f90565b915061154982611508565b602082019050919050565b6000602082019050818103600083015261156d81611531565b9050919050565b7f5472616e73666572206661696c65640000000000000000000000000000000000600082015250565b60006115aa600f83610f90565b91506115b582611574565b602082019050919050565b600060208201905081810360008301526115d98161159d565b905091905056fea2646970667358221220a82060bd4ff4f737b1a4e6c32a4db0e73f05b84ddee9d74453ab2ad441f22e6d64736f6c63430008140033a2646970667358221220707e16dc0c7b957e0551aed10c377453c18b98ea6d6d5e02d46ec8bee2cc2ba164736f6c63430008140033",
  "linkReferences": {},
  "deployedLinkReferences": {}
}