{
    "_format": "hh-sol-artifact-1",
    "contractName": "LiquidityPool",
    "sourceName": "contracts/LiquidityPool.sol",
    "abi": [
        {
            "inputs": [
                {
                    "internalType": "address",
                    "name": "_tokenA",
                    "type": "address"
                },
                {
                    "internalType": "address",
                    "name": "_tokenB",
                    "type": "address"
                }
            ],
            "stateMutability": "nonpayable",
            "type": "constructor"
        },
        {
            "anonymous": false,
            "inputs": [
                {
                    "indexed": true,
                    "internalType": "address",
                    "name": "provider",
                    "type": "address"
                },
                {
                    "indexed": false,
                    "internalType": "uint256",
                    "name": "amountA",
                    "type": "uint256"
                },
                {
                    "indexed": false,
                    "internalType": "uint256",
                    "name": "amountB",
                    "type": "uint256"
                }
            ],
            "name": "LiquidityAdded",
            "type": "event"
        },
        {
            "anonymous": false,
            "inputs": [
                {
                    "indexed": true,
                    "internalType": "address",
                    "name": "provider",
                    "type": "address"
                },
                {
                    "indexed": false,
                    "internalType": "uint256",
                    "name": "amountA",
                    "type": "uint256"
                },
                {
                    "indexed": false,
                    "internalType": "uint256",
                    "name": "amountB",
                    "type": "uint256"
                }
            ],
            "name": "LiquidityRemoved",
            "type": "event"
        },
        {
            "inputs": [
                {
                    "internalType": "uint256",
                    "name": "amountA",
                    "type": "uint256"
                },
                {
                    "internalType": "uint256",
                    "name": "amountB",
                    "type": "uint256"
                }
            ],
            "name": "addLiquidity",
            "outputs": [],
            "stateMutability": "nonpayable",
            "type": "function"
        },
        {
            "inputs": [
                {
                    "internalType": "address",
                    "name": "",
                    "type": "address"
                }
            ],
            "name": "liquidity",
            "outputs": [
                {
                    "internalType": "uint256",
                    "name": "",
                    "type": "uint256"
                }
            ],
            "stateMutability": "view",
            "type": "function"
        },
        {
            "inputs": [
                {
                    "internalType": "uint256",
                    "name": "amountA",
                    "type": "uint256"
                },
                {
                    "internalType": "uint256",
                    "name": "amountB",
                    "type": "uint256"
                }
            ],
            "name": "removeLiquidity",
            "outputs": [],
            "stateMutability": "nonpayable",
            "type": "function"
        },
        {
            "inputs": [],
            "name": "reserveA",
            "outputs": [
                {
                    "internalType": "uint256",
                    "name": "",
                    "type": "uint256"
                }
            ],
            "stateMutability": "view",
            "type": "function"
        },
        {
            "inputs": [],
            "name": "reserveB",
            "outputs": [
                {
                    "internalType": "uint256",
                    "name": "",
                    "type": "uint256"
                }
            ],
            "stateMutability": "view",
            "type": "function"
        },
        {
            "inputs": [],
            "name": "tokenA",
            "outputs": [
                {
                    "internalType": "address",
                    "name": "",
                    "type": "address"
                }
            ],
            "stateMutability": "view",
            "type": "function"
        },
        {
            "inputs": [],
            "name": "tokenB",
            "outputs": [
                {
                    "internalType": "address",
                    "name": "",
                    "type": "address"
                }
            ],
            "stateMutability": "view",
            "type": "function"
        }
    ],
    "bytecode": "0x608060405234801561001057600080fd5b50604051610d01380380610d018339818101604052810190610032919061011d565b816000806101000a81548173ffffffffffffffffffffffffffffffffffffffff021916908373ffffffffffffffffffffffffffffffffffffffff16021790555080600160006101000a81548173ffffffffffffffffffffffffffffffffffffffff021916908373ffffffffffffffffffffffffffffffffffffffff160217905550505061015d565b600080fd5b600073ffffffffffffffffffffffffffffffffffffffff82169050919050565b60006100ea826100bf565b9050919050565b6100fa816100df565b811461010557600080fd5b50565b600081519050610117816100f1565b92915050565b60008060408385031215610134576101336100ba565b5b600061014285828601610108565b925050602061015385828601610108565b9150509250929050565b610b958061016c6000396000f3fe608060405234801561001057600080fd5b506004361061007d5760003560e01c80639cd441da1161005b5780639cd441da146100dc5780639d7de6b3146100f8578063b8c876b114610114578063dc5fa6c5146101445761007d565b80630fc63d101461008257806319e36f3b146100a05780635f64b55b146100be575b600080fd5b61008a610162565b604051610097919061076c565b60405180910390f35b6100a8610186565b6040516100b591906107a0565b60405180910390f35b6100c661018c565b6040516100d3919061076c565b60405180910390f35b6100f660048036038101906100f191906107ec565b6101b2565b005b610112600480360381019061010d91906107ec565b610459565b005b61012e60048036038101906101299190610858565b61070d565b60405161013b91906107a0565b60405180910390f35b61014c610725565b60405161015991906107a0565b60405180910390f35b60008054906101000a900473ffffffffffffffffffffffffffffffffffffffff1681565b60035481565b600160009054906101000a900473ffffffffffffffffffffffffffffffffffffffff1681565b60008054906101000a900473ffffffffffffffffffffffffffffffffffffffff1673ffffffffffffffffffffffffffffffffffffffff166323b872dd3330856040518463ffffffff1660e01b815260040161020f93929190610885565b6020604051808303816000875af115801561022e573d6000803e3d6000fd5b505050506040513d601f19601f8201168201806040525081019061025291906108f4565b610291576040517f08c379a00000000000000000000000000000000000000000000000000000000081526004016102889061097e565b60405180910390fd5b600160009054906101000a900473ffffffffffffffffffffffffffffffffffffffff1673ffffffffffffffffffffffffffffffffffffffff166323b872dd3330846040518463ffffffff1660e01b81526004016102f093929190610885565b6020604051808303816000875af115801561030f573d6000803e3d6000fd5b505050506040513d601f19601f8201168201806040525081019061033391906108f4565b610372576040517f08c379a0000000000000000000000000000000000000000000000000000000008152600401610369906109ea565b60405180910390fd5b81600260008282546103849190610a39565b92505081905550806003600082825461039d9190610a39565b9250508190555080826103b09190610a39565b600460003373ffffffffffffffffffffffffffffffffffffffff1673ffffffffffffffffffffffffffffffffffffffff16815260200190815260200160002060008282546103fe9190610a39565b925050819055503373ffffffffffffffffffffffffffffffffffffffff167fac1d76749e5447b7b16f5ab61447e1bd502f3bb4807af3b28e620d1700a6ee45838360405161044d929190610a6d565b60405180910390a25050565b80826104659190610a39565b600460003373ffffffffffffffffffffffffffffffffffffffff1673ffffffffffffffffffffffffffffffffffffffff1681526020019081526020016000205410156104e6576040517f08c379a00000000000000000000000000000000000000000000000000000000081526004016104dd90610ae2565b60405180910390fd5b81600260008282546104f89190610b02565b9250508190555080600360008282546105119190610b02565b9250508190555080826105249190610a39565b600460003373ffffffffffffffffffffffffffffffffffffffff1673ffffffffffffffffffffffffffffffffffffffff16815260200190815260200160002060008282546105729190610b02565b9250508190555060008054906101000a900473ffffffffffffffffffffffffffffffffffffffff1673ffffffffffffffffffffffffffffffffffffffff1663a9059cbb33846040518363ffffffff1660e01b81526004016105d4929190610b36565b6020604051808303816000875af11580156105f3573d6000803e3d6000fd5b505050506040513d601f19601f8201168201806040525081019061061791906108f4565b50600160009054906101000a900473ffffffffffffffffffffffffffffffffffffffff1673ffffffffffffffffffffffffffffffffffffffff1663a9059cbb33836040518363ffffffff1660e01b8152600401610675929190610b36565b6020604051808303816000875af1158015610694573d6000803e3d6000fd5b505050506040513d601f19601f820116820180604052508101906106b891906108f4565b503373ffffffffffffffffffffffffffffffffffffffff167f96cd817c6329656790ef8fba7675405193677d39619571282f5e21f3a98cd0598383604051610701929190610a6d565b60405180910390a25050565b60046020528060005260406000206000915090505481565b60025481565b600073ffffffffffffffffffffffffffffffffffffffff82169050919050565b60006107568261072b565b9050919050565b6107668161074b565b82525050565b6000602082019050610781600083018461075d565b92915050565b6000819050919050565b61079a81610787565b82525050565b60006020820190506107b56000830184610791565b92915050565b600080fd5b6107c981610787565b81146107d457600080fd5b50565b6000813590506107e6816107c0565b92915050565b60008060408385031215610803576108026107bb565b5b6000610811858286016107d7565b9250506020610822858286016107d7565b9150509250929050565b6108358161074b565b811461084057600080fd5b50565b6000813590506108528161082c565b92915050565b60006020828403121561086e5761086d6107bb565b5b600061087c84828501610843565b91505092915050565b600060608201905061089a600083018661075d565b6108a7602083018561075d565b6108b46040830184610791565b949350505050565b60008115159050919050565b6108d1816108bc565b81146108dc57600080fd5b50565b6000815190506108ee816108c8565b92915050565b60006020828403121561090a576109096107bb565b5b6000610918848285016108df565b91505092915050565b600082825260208201905092915050565b7f546f6b656e2041207472616e73666572206661696c6564000000000000000000600082015250565b6000610968601783610921565b915061097382610932565b602082019050919050565b600060208201905081810360008301526109978161095b565b9050919050565b7f546f6b656e2042207472616e73666572206661696c6564000000000000000000600082015250565b60006109d4601783610921565b91506109df8261099e565b602082019050919050565b60006020820190508181036000830152610a03816109c7565b9050919050565b7f4e487b7100000000000000000000000000000000000000000000000000000000600052601160045260246000fd5b6000610a4482610787565b9150610a4f83610787565b9250828201905080821115610a6757610a66610a0a565b5b92915050565b6000604082019050610a826000830185610791565b610a8f6020830184610791565b9392505050565b7f4e6f7420656e6f756768206c6971756964697479000000000000000000000000600082015250565b6000610acc601483610921565b9150610ad782610a96565b602082019050919050565b60006020820190508181036000830152610afb81610abf565b9050919050565b6000610b0d82610787565b9150610b1883610787565b9250828203905081811115610b3057610b2f610a0a565b5b92915050565b6000604082019050610b4b600083018561075d565b610b586020830184610791565b939250505056fea2646970667358221220dcb4069cbd4de5c90f00d0a948daece478fb911eadb08d642649c5cc7a048f6f64736f6c63430008140033",
    "linkReferences": {},
    "deployedLinkReferences": {}
}