{
  "_format": "hh-sol-artifact-1",
  "contractName": "LiquidityPool",
  "sourceName": "contracts/LiquidityPool.sol",
  "abi": [
    {
      "inputs": [
        {
          "internalType": "address",
          "name": "_tokenA",
          "type": "address"
        },
        {
          "internalType": "address",
          "name": "_tokenB",
          "type": "address"
        }
      ],
      "stateMutability": "nonpayable",
      "type": "constructor"
    },
    {
      "anonymous": false,
      "inputs": [
        {
          "indexed": true,
          "internalType": "address",
          "name": "provider",
          "type": "address"
        },
        {
          "indexed": false,
          "internalType": "uint256",
          "name": "amountA",
          "type": "uint256"
        },
        {
          "indexed": false,
          "internalType": "uint256",
          "name": "amountB",
          "type": "uint256"
        }
      ],
      "name": "LiquidityAdded",
      "type": "event"
    },
    {
      "anonymous": false,
      "inputs": [
        {
          "indexed": true,
          "internalType": "address",
          "name": "provider",
          "type": "address"
        },
        {
          "indexed": false,
          "internalType": "uint256",
          "name": "amountA",
          "type": "uint256"
        },
        {
          "indexed": false,
          "internalType": "uint256",
          "name": "amountB",
          "type": "uint256"
        }
      ],
      "name": "LiquidityRemoved",
      "type": "event"
    },
    {
      "anonymous": false,
      "inputs": [
        {
          "indexed": true,
          "internalType": "address",
          "name": "trader",
          "type": "address"
        },
        {
          "indexed": true,
          "internalType": "address",
          "name": "tokenIn",
          "type": "address"
        },
        {
          "indexed": true,
          "internalType": "address",
          "name": "tokenOut",
          "type": "address"
        },
        {
          "indexed": false,
          "internalType": "uint256",
          "name": "amountIn",
          "type": "uint256"
        },
        {
          "indexed": false,
          "internalType": "uint256",
          "name": "amountOut",
          "type": "uint256"
        }
      ],
      "name": "Swapped",
      "type": "event"
    },
    {
      "inputs": [
        {
          "internalType": "uint256",
          "name": "amountA",
          "type": "uint256"
        },
        {
          "internalType": "uint256",
          "name": "amountB",
          "type": "uint256"
        }
      ],
      "name": "addLiquidity",
      "outputs": [],
      "stateMutability": "nonpayable",
      "type": "function"
    },
    {
      "inputs": [
        {
          "internalType": "address",
          "name": "",
          "type": "address"
        }
      ],
      "name": "liquidity",
      "outputs": [
        {
          "internalType": "uint256",
          "name": "",
          "type": "uint256"
        }
      ],
      "stateMutability": "view",
      "type": "function"
    },
    {
      "inputs": [
        {
          "internalType": "uint256",
          "name": "liquidityAmount",
          "type": "uint256"
        }
      ],
      "name": "removeLiquidity",
      "outputs": [],
      "stateMutability": "nonpayable",
      "type": "function"
    },
    {
      "inputs": [],
      "name": "reserveA",
      "outputs": [
        {
          "internalType": "uint256",
          "name": "",
          "type": "uint256"
        }
      ],
      "stateMutability": "view",
      "type": "function"
    },
    {
      "inputs": [],
      "name": "reserveB",
      "outputs": [
        {
          "internalType": "uint256",
          "name": "",
          "type": "uint256"
        }
      ],
      "stateMutability": "view",
      "type": "function"
    },
    {
      "inputs": [
        {
          "internalType": "address",
          "name": "tokenIn",
          "type": "address"
        },
        {
          "internalType": "uint256",
          "name": "amountIn",
          "type": "uint256"
        }
      ],
      "name": "swap",
      "outputs": [
        {
          "internalType": "uint256",
          "name": "amountOut",
          "type": "uint256"
        }
      ],
      "stateMutability": "nonpayable",
      "type": "function"
    },
    {
      "inputs": [],
      "name": "tokenA",
      "outputs": [
        {
          "internalType": "address",
          "name": "",
          "type": "address"
        }
      ],
      "stateMutability": "view",
      "type": "function"
    },
    {
      "inputs": [],
      "name": "tokenB",
      "outputs": [
        {
          "internalType": "address",
          "name": "",
          "type": "address"
        }
      ],
      "stateMutability": "view",
      "type": "function"
    }
  ],
  "bytecode": "0x60c06040523480156200001157600080fd5b50604051620014fd380380620014fd8339818101604052810190620000379190620001c1565b8073ffffffffffffffffffffffffffffffffffffffff168273ffffffffffffffffffffffffffffffffffffffff1603620000a8576040517f08c379a00000000000000000000000000000000000000000000000000000000081526004016200009f9062000269565b60405180910390fd5b8073ffffffffffffffffffffffffffffffffffffffff168273ffffffffffffffffffffffffffffffffffffffff1610620000e4578082620000e7565b81815b8073ffffffffffffffffffffffffffffffffffffffff1660a09073ffffffffffffffffffffffffffffffffffffffff168152508173ffffffffffffffffffffffffffffffffffffffff1660809073ffffffffffffffffffffffffffffffffffffffff16815250505050506200028b565b600080fd5b600073ffffffffffffffffffffffffffffffffffffffff82169050919050565b600062000189826200015c565b9050919050565b6200019b816200017c565b8114620001a757600080fd5b50565b600081519050620001bb8162000190565b92915050565b60008060408385031215620001db57620001da62000157565b5b6000620001eb85828601620001aa565b9250506020620001fe85828601620001aa565b9150509250929050565b600082825260208201905092915050565b7f4964656e746963616c20746f6b656e7300000000000000000000000000000000600082015250565b60006200025160108362000208565b91506200025e8262000219565b602082019050919050565b60006020820190508181036000830152620002848162000242565b9050919050565b60805160a0516111ff620002fe600039600081816101c901528181610373015281816104e4015281816106620152610ada01526000818161019f01528181610347015281816104b80152818161060d015281816107370152818161084501528181610a610152610ab401526111ff6000f3fe608060405234801561001057600080fd5b50600436106100885760003560e01c80639cd441da1161005b5780639cd441da14610103578063b8c876b11461011f578063d004f0f71461014f578063dc5fa6c51461017f57610088565b80630fc63d101461008d57806319e36f3b146100ab5780635f64b55b146100c95780639c8f9f23146100e7575b600080fd5b61009561019d565b6040516100a29190610b40565b60405180910390f35b6100b36101c1565b6040516100c09190610b74565b60405180910390f35b6100d16101c7565b6040516100de9190610b40565b60405180910390f35b61010160048036038101906100fc9190610bc0565b6101eb565b005b61011d60048036038101906101189190610bed565b6103f0565b005b61013960048036038101906101349190610c59565b6105f1565b6040516101469190610b74565b60405180910390f35b61016960048036038101906101649190610c86565b610609565b6040516101769190610b74565b60405180910390f35b61018761098c565b6040516101949190610b74565b60405180910390f35b7f000000000000000000000000000000000000000000000000000000000000000081565b60015481565b7f000000000000000000000000000000000000000000000000000000000000000081565b80600260003373ffffffffffffffffffffffffffffffffffffffff1673ffffffffffffffffffffffffffffffffffffffff16815260200190815260200160002054101561026d576040517f08c379a000000000000000000000000000000000000000000000000000000000815260040161026490610d23565b60405180910390fd5b600060015460005461027f9190610d72565b9050600081600054846102929190610da6565b61029c9190610e17565b9050600082600154856102af9190610da6565b6102b99190610e17565b9050816000808282546102cc9190610e48565b9250508190555080600160008282546102e59190610e48565b9250508190555083600260003373ffffffffffffffffffffffffffffffffffffffff1673ffffffffffffffffffffffffffffffffffffffff168152602001908152602001600020600082825461033b9190610e48565b9250508190555061036e7f0000000000000000000000000000000000000000000000000000000000000000303385610992565b61039a7f0000000000000000000000000000000000000000000000000000000000000000303384610992565b3373ffffffffffffffffffffffffffffffffffffffff167f96cd817c6329656790ef8fba7675405193677d39619571282f5e21f3a98cd05983836040516103e2929190610e7c565b60405180910390a250505050565b6000821180156104005750600081115b61043f576040517f08c379a000000000000000000000000000000000000000000000000000000000815260040161043690610ef1565b60405180910390fd5b60008054118061045157506000600154115b156104b357600054816104649190610da6565b600154836104729190610da6565b146104b2576040517f08c379a00000000000000000000000000000000000000000000000000000000081526004016104a990610f5d565b60405180910390fd5b5b6104df7f0000000000000000000000000000000000000000000000000000000000000000333085610992565b61050b7f0000000000000000000000000000000000000000000000000000000000000000333084610992565b8160008082825461051c9190610d72565b9250508190555080600160008282546105359190610d72565b9250508190555080826105489190610d72565b600260003373ffffffffffffffffffffffffffffffffffffffff1673ffffffffffffffffffffffffffffffffffffffff16815260200190815260200160002060008282546105969190610d72565b925050819055503373ffffffffffffffffffffffffffffffffffffffff167fac1d76749e5447b7b16f5ab61447e1bd502f3bb4807af3b28e620d1700a6ee4583836040516105e5929190610e7c565b60405180910390a25050565b60026020528060005260406000206000915090505481565b60007f000000000000000000000000000000000000000000000000000000000000000073ffffffffffffffffffffffffffffffffffffffff168373ffffffffffffffffffffffffffffffffffffffff1614806106b057507f000000000000000000000000000000000000000000000000000000000000000073ffffffffffffffffffffffffffffffffffffffff168373ffffffffffffffffffffffffffffffffffffffff16145b6106ef576040517f08c379a00000000000000000000000000000000000000000000000000000000081526004016106e690610fc9565b60405180910390fd5b60008211610732576040517f08c379a000000000000000000000000000000000000000000000000000000000815260040161072990611035565b60405180910390fd5b6000807f000000000000000000000000000000000000000000000000000000000000000073ffffffffffffffffffffffffffffffffffffffff168573ffffffffffffffffffffffffffffffffffffffff16146107935760015460005461079a565b6000546001545b9150915060006103e86103e5866107b19190610da6565b6107bb9190610e17565b905080836107c99190610d72565b82826107d59190610da6565b6107df9190610e17565b935060008411610824576040517f08c379a000000000000000000000000000000000000000000000000000000000815260040161081b906110a1565b60405180910390fd5b61083086333088610992565b61084361083b610a5d565b303387610992565b7f000000000000000000000000000000000000000000000000000000000000000073ffffffffffffffffffffffffffffffffffffffff168673ffffffffffffffffffffffffffffffffffffffff16036108cc57846000808282546108a79190610d72565b9250508190555083600160008282546108c09190610e48565b925050819055506108fe565b84600160008282546108de9190610d72565b92505081905550836000808282546108f69190610e48565b925050819055505b610906610a5d565b73ffffffffffffffffffffffffffffffffffffffff168673ffffffffffffffffffffffffffffffffffffffff163373ffffffffffffffffffffffffffffffffffffffff167f6782190c91d4a7e8ad2a867deed6ec0a970cab8ff137ae2bd4abd92b3810f4d3888860405161097b929190610e7c565b60405180910390a450505092915050565b60005481565b60008473ffffffffffffffffffffffffffffffffffffffff166323b872dd8585856040518463ffffffff1660e01b81526004016109d1939291906110c1565b6020604051808303816000875af11580156109f0573d6000803e3d6000fd5b505050506040513d601f19601f82011682018060405250810190610a149190611130565b905080610a56576040517f08c379a0000000000000000000000000000000000000000000000000000000008152600401610a4d906111a9565b60405180910390fd5b5050505050565b60007f000000000000000000000000000000000000000000000000000000000000000073ffffffffffffffffffffffffffffffffffffffff163373ffffffffffffffffffffffffffffffffffffffff1614610ad8577f0000000000000000000000000000000000000000000000000000000000000000610afa565b7f00000000000000000000000000000000000000000000000000000000000000005b905090565b600073ffffffffffffffffffffffffffffffffffffffff82169050919050565b6000610b2a82610aff565b9050919050565b610b3a81610b1f565b82525050565b6000602082019050610b556000830184610b31565b92915050565b6000819050919050565b610b6e81610b5b565b82525050565b6000602082019050610b896000830184610b65565b92915050565b600080fd5b610b9d81610b5b565b8114610ba857600080fd5b50565b600081359050610bba81610b94565b92915050565b600060208284031215610bd657610bd5610b8f565b5b6000610be484828501610bab565b91505092915050565b60008060408385031215610c0457610c03610b8f565b5b6000610c1285828601610bab565b9250506020610c2385828601610bab565b9150509250929050565b610c3681610b1f565b8114610c4157600080fd5b50565b600081359050610c5381610c2d565b92915050565b600060208284031215610c6f57610c6e610b8f565b5b6000610c7d84828501610c44565b91505092915050565b60008060408385031215610c9d57610c9c610b8f565b5b6000610cab85828601610c44565b9250506020610cbc85828601610bab565b9150509250929050565b600082825260208201905092915050565b7f496e73756666696369656e74206c697175696469747900000000000000000000600082015250565b6000610d0d601683610cc6565b9150610d1882610cd7565b602082019050919050565b60006020820190508181036000830152610d3c81610d00565b9050919050565b7f4e487b7100000000000000000000000000000000000000000000000000000000600052601160045260246000fd5b6000610d7d82610b5b565b9150610d8883610b5b565b9250828201905080821115610da057610d9f610d43565b5b92915050565b6000610db182610b5b565b9150610dbc83610b5b565b9250828202610dca81610b5b565b91508282048414831517610de157610de0610d43565b5b5092915050565b7f4e487b7100000000000000000000000000000000000000000000000000000000600052601260045260246000fd5b6000610e2282610b5b565b9150610e2d83610b5b565b925082610e3d57610e3c610de8565b5b828204905092915050565b6000610e5382610b5b565b9150610e5e83610b5b565b9250828203905081811115610e7657610e75610d43565b5b92915050565b6000604082019050610e916000830185610b65565b610e9e6020830184610b65565b9392505050565b7f496e76616c696420616d6f756e74730000000000000000000000000000000000600082015250565b6000610edb600f83610cc6565b9150610ee682610ea5565b602082019050919050565b60006020820190508181036000830152610f0a81610ece565b9050919050565b7f496e76616c696420726174696f00000000000000000000000000000000000000600082015250565b6000610f47600d83610cc6565b9150610f5282610f11565b602082019050919050565b60006020820190508181036000830152610f7681610f3a565b9050919050565b7f496e76616c696420746f6b656e00000000000000000000000000000000000000600082015250565b6000610fb3600d83610cc6565b9150610fbe82610f7d565b602082019050919050565b60006020820190508181036000830152610fe281610fa6565b9050919050565b7f496e76616c696420616d6f756e74000000000000000000000000000000000000600082015250565b600061101f600e83610cc6565b915061102a82610fe9565b602082019050919050565b6000602082019050818103600083015261104e81611012565b9050919050565b7f496e73756666696369656e74206f757470757400000000000000000000000000600082015250565b600061108b601383610cc6565b915061109682611055565b602082019050919050565b600060208201905081810360008301526110ba8161107e565b9050919050565b60006060820190506110d66000830186610b31565b6110e36020830185610b31565b6110f06040830184610b65565b949350505050565b60008115159050919050565b61110d816110f8565b811461111857600080fd5b50565b60008151905061112a81611104565b92915050565b60006020828403121561114657611145610b8f565b5b60006111548482850161111b565b91505092915050565b7f5472616e73666572206661696c65640000000000000000000000000000000000600082015250565b6000611193600f83610cc6565b915061119e8261115d565b602082019050919050565b600060208201905081810360008301526111c281611186565b905091905056fea264697066735822122062b4718643ac42e899b93db61e1bf4a006772d9dd5b3775271be4b117125775c64736f6c63430008140033",
  "linkReferences": {},
  "deployedLinkReferences": {}
}