{
    "_format": "hh-sol-artifact-1",
    "contractName": "Swap",
    "sourceName": "contracts/Swap.sol",
    "abi": [
        {
            "anonymous": false,
            "inputs": [
                {
                    "indexed": true,
                    "internalType": "address",
                    "name": "trader",
                    "type": "address"
                },
                {
                    "indexed": false,
                    "internalType": "uint256",
                    "name": "amountIn",
                    "type": "uint256"
                },
                {
                    "indexed": false,
                    "internalType": "uint256",
                    "name": "amountOut",
                    "type": "uint256"
                },
                {
                    "indexed": false,
                    "internalType": "address",
                    "name": "tokenIn",
                    "type": "address"
                },
                {
                    "indexed": false,
                    "internalType": "address",
                    "name": "tokenOut",
                    "type": "address"
                }
            ],
            "name": "SwapExecuted",
            "type": "event"
        },
        {
            "inputs": [
                {
                    "internalType": "address",
                    "name": "tokenIn",
                    "type": "address"
                },
                {
                    "internalType": "address",
                    "name": "tokenOut",
                    "type": "address"
                },
                {
                    "internalType": "uint256",
                    "name": "amountIn",
                    "type": "uint256"
                },
                {
                    "internalType": "address",
                    "name": "poolAddress",
                    "type": "address"
                }
            ],
            "name": "swap",
            "outputs": [],
            "stateMutability": "nonpayable",
            "type": "function"
        }
    ],
    "bytecode": "0x608060405234801561001057600080fd5b50610ab3806100206000396000f3fe608060405234801561001057600080fd5b506004361061002b5760003560e01c80636e81221c14610030575b600080fd5b61004a60048036038101906100459190610610565b61004c565b005b60008190508373ffffffffffffffffffffffffffffffffffffffff168573ffffffffffffffffffffffffffffffffffffffff16036100bf576040517f08c379a00000000000000000000000000000000000000000000000000000000081526004016100b6906106d4565b60405180910390fd5b6000808273ffffffffffffffffffffffffffffffffffffffff16630fc63d106040518163ffffffff1660e01b8152600401602060405180830381865afa15801561010d573d6000803e3d6000fd5b505050506040513d601f19601f820116820180604052508101906101319190610709565b73ffffffffffffffffffffffffffffffffffffffff168773ffffffffffffffffffffffffffffffffffffffff1614610246578273ffffffffffffffffffffffffffffffffffffffff166319e36f3b6040518163ffffffff1660e01b8152600401602060405180830381865afa1580156101ae573d6000803e3d6000fd5b505050506040513d601f19601f820116820180604052508101906101d2919061074b565b8373ffffffffffffffffffffffffffffffffffffffff1663dc5fa6c56040518163ffffffff1660e01b8152600401602060405180830381865afa15801561021d573d6000803e3d6000fd5b505050506040513d601f19601f82011682018060405250810190610241919061074b565b610325565b8273ffffffffffffffffffffffffffffffffffffffff1663dc5fa6c56040518163ffffffff1660e01b8152600401602060405180830381865afa158015610291573d6000803e3d6000fd5b505050506040513d601f19601f820116820180604052508101906102b5919061074b565b8373ffffffffffffffffffffffffffffffffffffffff166319e36f3b6040518163ffffffff1660e01b8152600401602060405180830381865afa158015610300573d6000803e3d6000fd5b505050506040513d601f19601f82011682018060405250810190610324919061074b565b5b915091506000858361033791906107a7565b828761034391906107db565b61034d919061084c565b905060008111801561035e57508181105b61039d576040517f08c379a0000000000000000000000000000000000000000000000000000000008152600401610394906108c9565b60405180910390fd5b8773ffffffffffffffffffffffffffffffffffffffff166323b872dd3387896040518463ffffffff1660e01b81526004016103da93929190610907565b6020604051808303816000875af11580156103f9573d6000803e3d6000fd5b505050506040513d601f19601f8201168201806040525081019061041d9190610976565b61045c576040517f08c379a0000000000000000000000000000000000000000000000000000000008152600401610453906109ef565b60405180910390fd5b8673ffffffffffffffffffffffffffffffffffffffff1663a9059cbb33836040518363ffffffff1660e01b8152600401610497929190610a0f565b6020604051808303816000875af11580156104b6573d6000803e3d6000fd5b505050506040513d601f19601f820116820180604052508101906104da9190610976565b610519576040517f08c379a0000000000000000000000000000000000000000000000000000000008152600401610510906109ef565b60405180910390fd5b3373ffffffffffffffffffffffffffffffffffffffff167fce746d2f1cec50eeda4dd25640e14842858d89794d8a9e4dff61769f5a0e63ad87838b8b6040516105659493929190610a38565b60405180910390a25050505050505050565b600080fd5b600073ffffffffffffffffffffffffffffffffffffffff82169050919050565b60006105a78261057c565b9050919050565b6105b78161059c565b81146105c257600080fd5b50565b6000813590506105d4816105ae565b92915050565b6000819050919050565b6105ed816105da565b81146105f857600080fd5b50565b60008135905061060a816105e4565b92915050565b6000806000806080858703121561062a57610629610577565b5b6000610638878288016105c5565b9450506020610649878288016105c5565b935050604061065a878288016105fb565b925050606061066b878288016105c5565b91505092959194509250565b600082825260208201905092915050565b7f546f6b656e73206d75737420626520646966666572656e740000000000000000600082015250565b60006106be601883610677565b91506106c982610688565b602082019050919050565b600060208201905081810360008301526106ed816106b1565b9050919050565b600081519050610703816105ae565b92915050565b60006020828403121561071f5761071e610577565b5b600061072d848285016106f4565b91505092915050565b600081519050610745816105e4565b92915050565b60006020828403121561076157610760610577565b5b600061076f84828501610736565b91505092915050565b7f4e487b7100000000000000000000000000000000000000000000000000000000600052601160045260246000fd5b60006107b2826105da565b91506107bd836105da565b92508282019050808211156107d5576107d4610778565b5b92915050565b60006107e6826105da565b91506107f1836105da565b92508282026107ff816105da565b9150828204841483151761081657610815610778565b5b5092915050565b7f4e487b7100000000000000000000000000000000000000000000000000000000600052601260045260246000fd5b6000610857826105da565b9150610862836105da565b9250826108725761087161081d565b5b828204905092915050565b7f496e73756666696369656e74206f757470757420616d6f756e74000000000000600082015250565b60006108b3601a83610677565b91506108be8261087d565b602082019050919050565b600060208201905081810360008301526108e2816108a6565b9050919050565b6108f28161059c565b82525050565b610901816105da565b82525050565b600060608201905061091c60008301866108e9565b61092960208301856108e9565b61093660408301846108f8565b949350505050565b60008115159050919050565b6109538161093e565b811461095e57600080fd5b50565b6000815190506109708161094a565b92915050565b60006020828403121561098c5761098b610577565b5b600061099a84828501610961565b91505092915050565b7f5472616e73666572206661696c65640000000000000000000000000000000000600082015250565b60006109d9600f83610677565b91506109e4826109a3565b602082019050919050565b60006020820190508181036000830152610a08816109cc565b9050919050565b6000604082019050610a2460008301856108e9565b610a3160208301846108f8565b9392505050565b6000608082019050610a4d60008301876108f8565b610a5a60208301866108f8565b610a6760408301856108e9565b610a7460608301846108e9565b9594505050505056fea264697066735822122062fc09556447f679dd55601c02b256e2fca495d5188b9e67b5b59f7ff2ef7b0e64736f6c63430008140033",
    "linkReferences": {},
    "deployedLinkReferences": {}
}