{
  "_format": "hh-sol-artifact-1",
  "contractName": "Swap",
  "sourceName": "contracts/Swap.sol",
  "abi": [
    {
      "anonymous": false,
      "inputs": [
        {
          "indexed": true,
          "internalType": "address",
          "name": "trader",
          "type": "address"
        },
        {
          "indexed": false,
          "internalType": "uint256",
          "name": "amountIn",
          "type": "uint256"
        },
        {
          "indexed": false,
          "internalType": "uint256",
          "name": "amountOut",
          "type": "uint256"
        },
        {
          "indexed": false,
          "internalType": "address",
          "name": "tokenIn",
          "type": "address"
        },
        {
          "indexed": false,
          "internalType": "address",
          "name": "tokenOut",
          "type": "address"
        }
      ],
      "name": "SwapExecuted",
      "type": "event"
    },
    {
      "inputs": [
        {
          "internalType": "contract LiquidityPool",
          "name": "pool",
          "type": "address"
        },
        {
          "internalType": "address",
          "name": "tokenIn",
          "type": "address"
        },
        {
          "internalType": "uint256",
          "name": "amountIn",
          "type": "uint256"
        }
      ],
      "name": "executeSwap",
      "outputs": [
        {
          "internalType": "uint256",
          "name": "amountOut",
          "type": "uint256"
        }
      ],
      "stateMutability": "nonpayable",
      "type": "function"
    }
  ],
  "bytecode": "0x608060405234801561001057600080fd5b50610611806100206000396000f3fe608060405234801561001057600080fd5b506004361061002b5760003560e01c80630da3a02914610030575b600080fd5b61004a600480360381019061004591906103e0565b610060565b6040516100579190610442565b60405180910390f35b60008082116100a4576040517f08c379a000000000000000000000000000000000000000000000000000000000815260040161009b906104ba565b60405180910390fd5b60008473ffffffffffffffffffffffffffffffffffffffff16630fc63d106040518163ffffffff1660e01b8152600401602060405180830381865afa1580156100f1573d6000803e3d6000fd5b505050506040513d601f19601f8201168201806040525081019061011591906104ef565b73ffffffffffffffffffffffffffffffffffffffff168473ffffffffffffffffffffffffffffffffffffffff16146101bb578473ffffffffffffffffffffffffffffffffffffffff16630fc63d106040518163ffffffff1660e01b8152600401602060405180830381865afa158015610192573d6000803e3d6000fd5b505050506040513d601f19601f820116820180604052508101906101b691906104ef565b61022b565b8473ffffffffffffffffffffffffffffffffffffffff16635f64b55b6040518163ffffffff1660e01b8152600401602060405180830381865afa158015610206573d6000803e3d6000fd5b505050506040513d601f19601f8201168201806040525081019061022a91906104ef565b5b90508473ffffffffffffffffffffffffffffffffffffffff1663d004f0f785856040518363ffffffff1660e01b815260040161026892919061052b565b6020604051808303816000875af1158015610287573d6000803e3d6000fd5b505050506040513d601f19601f820116820180604052508101906102ab9190610569565b91503373ffffffffffffffffffffffffffffffffffffffff167fce746d2f1cec50eeda4dd25640e14842858d89794d8a9e4dff61769f5a0e63ad848487856040516102f99493929190610596565b60405180910390a2509392505050565b600080fd5b600073ffffffffffffffffffffffffffffffffffffffff82169050919050565b60006103398261030e565b9050919050565b600061034b8261032e565b9050919050565b61035b81610340565b811461036657600080fd5b50565b60008135905061037881610352565b92915050565b6103878161032e565b811461039257600080fd5b50565b6000813590506103a48161037e565b92915050565b6000819050919050565b6103bd816103aa565b81146103c857600080fd5b50565b6000813590506103da816103b4565b92915050565b6000806000606084860312156103f9576103f8610309565b5b600061040786828701610369565b935050602061041886828701610395565b9250506040610429868287016103cb565b9150509250925092565b61043c816103aa565b82525050565b60006020820190506104576000830184610433565b92915050565b600082825260208201905092915050565b7f416d6f756e74206d7573742062652067726561746572207468616e207a65726f600082015250565b60006104a460208361045d565b91506104af8261046e565b602082019050919050565b600060208201905081810360008301526104d381610497565b9050919050565b6000815190506104e98161037e565b92915050565b60006020828403121561050557610504610309565b5b6000610513848285016104da565b91505092915050565b6105258161032e565b82525050565b6000604082019050610540600083018561051c565b61054d6020830184610433565b9392505050565b600081519050610563816103b4565b92915050565b60006020828403121561057f5761057e610309565b5b600061058d84828501610554565b91505092915050565b60006080820190506105ab6000830187610433565b6105b86020830186610433565b6105c5604083018561051c565b6105d2606083018461051c565b9594505050505056fea2646970667358221220f49c767c8491c31408055d9619f560b12e35854262c99e6cf5513f211d799cfd64736f6c63430008140033",
  "linkReferences": {},
  "deployedLinkReferences": {}
}