{
  "_format": "hh-sol-artifact-1",
  "contractName": "Swap",
  "sourceName": "contracts/Swap.sol",
  "abi": [
    {
      "anonymous": false,
      "inputs": [
        {
          "indexed": true,
          "internalType": "address",
          "name": "trader",
          "type": "address"
        },
        {
          "indexed": false,
          "internalType": "uint256",
          "name": "amountIn",
          "type": "uint256"
        },
        {
          "indexed": false,
          "internalType": "uint256",
          "name": "amountOut",
          "type": "uint256"
        },
        {
          "indexed": false,
          "internalType": "address",
          "name": "tokenIn",
          "type": "address"
        },
        {
          "indexed": false,
          "internalType": "address",
          "name": "tokenOut",
          "type": "address"
        }
      ],
      "name": "SwapExecuted",
      "type": "event"
    },
    {
      "inputs": [
        {
          "internalType": "address",
          "name": "tokenIn",
          "type": "address"
        },
        {
          "internalType": "address",
          "name": "tokenOut",
          "type": "address"
        },
        {
          "internalType": "uint256",
          "name": "amountIn",
          "type": "uint256"
        },
        {
          "internalType": "address",
          "name": "poolAddress",
          "type": "address"
        }
      ],
      "name": "swap",
      "outputs": [],
      "stateMutability": "nonpayable",
      "type": "function"
    }
  ],
  "bytecode": "0x608060405234801561001057600080fd5b50610dd4806100206000396000f3fe608060405234801561001057600080fd5b506004361061002b5760003560e01c80636e81221c14610030575b600080fd5b61004a60048036038101906100459190610931565b61004c565b005b60008190508073ffffffffffffffffffffffffffffffffffffffff16630fc63d106040518163ffffffff1660e01b8152600401602060405180830381865afa15801561009c573d6000803e3d6000fd5b505050506040513d601f19601f820116820180604052508101906100c091906109ad565b73ffffffffffffffffffffffffffffffffffffffff168573ffffffffffffffffffffffffffffffffffffffff16148061019257508073ffffffffffffffffffffffffffffffffffffffff16635f64b55b6040518163ffffffff1660e01b8152600401602060405180830381865afa15801561013f573d6000803e3d6000fd5b505050506040513d601f19601f8201168201806040525081019061016391906109ad565b73ffffffffffffffffffffffffffffffffffffffff168573ffffffffffffffffffffffffffffffffffffffff16145b6101d1576040517f08c379a00000000000000000000000000000000000000000000000000000000081526004016101c890610a37565b60405180910390fd5b8073ffffffffffffffffffffffffffffffffffffffff16630fc63d106040518163ffffffff1660e01b8152600401602060405180830381865afa15801561021c573d6000803e3d6000fd5b505050506040513d601f19601f8201168201806040525081019061024091906109ad565b73ffffffffffffffffffffffffffffffffffffffff168473ffffffffffffffffffffffffffffffffffffffff16148061031257508073ffffffffffffffffffffffffffffffffffffffff16635f64b55b6040518163ffffffff1660e01b8152600401602060405180830381865afa1580156102bf573d6000803e3d6000fd5b505050506040513d601f19601f820116820180604052508101906102e391906109ad565b73ffffffffffffffffffffffffffffffffffffffff168473ffffffffffffffffffffffffffffffffffffffff16145b610351576040517f08c379a000000000000000000000000000000000000000000000000000000000815260040161034890610a37565b60405180910390fd5b8373ffffffffffffffffffffffffffffffffffffffff168573ffffffffffffffffffffffffffffffffffffffff16036103bf576040517f08c379a00000000000000000000000000000000000000000000000000000000081526004016103b690610aa3565b60405180910390fd5b60008173ffffffffffffffffffffffffffffffffffffffff16630fc63d106040518163ffffffff1660e01b8152600401602060405180830381865afa15801561040c573d6000803e3d6000fd5b505050506040513d601f19601f8201168201806040525081019061043091906109ad565b73ffffffffffffffffffffffffffffffffffffffff168673ffffffffffffffffffffffffffffffffffffffff16146104d6578173ffffffffffffffffffffffffffffffffffffffff166319e36f3b6040518163ffffffff1660e01b8152600401602060405180830381865afa1580156104ad573d6000803e3d6000fd5b505050506040513d601f19601f820116820180604052508101906104d19190610ad8565b610546565b8173ffffffffffffffffffffffffffffffffffffffff1663dc5fa6c56040518163ffffffff1660e01b8152600401602060405180830381865afa158015610521573d6000803e3d6000fd5b505050506040513d601f19601f820116820180604052508101906105459190610ad8565b5b905060008273ffffffffffffffffffffffffffffffffffffffff16630fc63d106040518163ffffffff1660e01b8152600401602060405180830381865afa158015610595573d6000803e3d6000fd5b505050506040513d601f19601f820116820180604052508101906105b991906109ad565b73ffffffffffffffffffffffffffffffffffffffff168773ffffffffffffffffffffffffffffffffffffffff161461065f578273ffffffffffffffffffffffffffffffffffffffff1663dc5fa6c56040518163ffffffff1660e01b8152600401602060405180830381865afa158015610636573d6000803e3d6000fd5b505050506040513d601f19601f8201168201806040525081019061065a9190610ad8565b6106cf565b8273ffffffffffffffffffffffffffffffffffffffff166319e36f3b6040518163ffffffff1660e01b8152600401602060405180830381865afa1580156106aa573d6000803e3d6000fd5b505050506040513d601f19601f820116820180604052508101906106ce9190610ad8565b5b9050600085836106df9190610b34565b82876106eb9190610b68565b6106f59190610bd9565b90506000811161073a576040517f08c379a000000000000000000000000000000000000000000000000000000000815260040161073190610c56565b60405180910390fd5b8773ffffffffffffffffffffffffffffffffffffffff166323b872dd3387896040518463ffffffff1660e01b815260040161077793929190610c94565b6020604051808303816000875af1158015610796573d6000803e3d6000fd5b505050506040513d601f19601f820116820180604052508101906107ba9190610d03565b508673ffffffffffffffffffffffffffffffffffffffff1663a9059cbb33836040518363ffffffff1660e01b81526004016107f6929190610d30565b6020604051808303816000875af1158015610815573d6000803e3d6000fd5b505050506040513d601f19601f820116820180604052508101906108399190610d03565b503373ffffffffffffffffffffffffffffffffffffffff167fce746d2f1cec50eeda4dd25640e14842858d89794d8a9e4dff61769f5a0e63ad87838b8b6040516108869493929190610d59565b60405180910390a25050505050505050565b600080fd5b600073ffffffffffffffffffffffffffffffffffffffff82169050919050565b60006108c88261089d565b9050919050565b6108d8816108bd565b81146108e357600080fd5b50565b6000813590506108f5816108cf565b92915050565b6000819050919050565b61090e816108fb565b811461091957600080fd5b50565b60008135905061092b81610905565b92915050565b6000806000806080858703121561094b5761094a610898565b5b6000610959878288016108e6565b945050602061096a878288016108e6565b935050604061097b8782880161091c565b925050606061098c878288016108e6565b91505092959194509250565b6000815190506109a7816108cf565b92915050565b6000602082840312156109c3576109c2610898565b5b60006109d184828501610998565b91505092915050565b600082825260208201905092915050565b7f496e76616c696420746f6b656e00000000000000000000000000000000000000600082015250565b6000610a21600d836109da565b9150610a2c826109eb565b602082019050919050565b60006020820190508181036000830152610a5081610a14565b9050919050565b7f546f6b656e73206d75737420626520646966666572656e740000000000000000600082015250565b6000610a8d6018836109da565b9150610a9882610a57565b602082019050919050565b60006020820190508181036000830152610abc81610a80565b9050919050565b600081519050610ad281610905565b92915050565b600060208284031215610aee57610aed610898565b5b6000610afc84828501610ac3565b91505092915050565b7f4e487b7100000000000000000000000000000000000000000000000000000000600052601160045260246000fd5b6000610b3f826108fb565b9150610b4a836108fb565b9250828201905080821115610b6257610b61610b05565b5b92915050565b6000610b73826108fb565b9150610b7e836108fb565b9250828202610b8c816108fb565b91508282048414831517610ba357610ba2610b05565b5b5092915050565b7f4e487b7100000000000000000000000000000000000000000000000000000000600052601260045260246000fd5b6000610be4826108fb565b9150610bef836108fb565b925082610bff57610bfe610baa565b5b828204905092915050565b7f496e73756666696369656e74206f757470757420616d6f756e74000000000000600082015250565b6000610c40601a836109da565b9150610c4b82610c0a565b602082019050919050565b60006020820190508181036000830152610c6f81610c33565b9050919050565b610c7f816108bd565b82525050565b610c8e816108fb565b82525050565b6000606082019050610ca96000830186610c76565b610cb66020830185610c76565b610cc36040830184610c85565b949350505050565b60008115159050919050565b610ce081610ccb565b8114610ceb57600080fd5b50565b600081519050610cfd81610cd7565b92915050565b600060208284031215610d1957610d18610898565b5b6000610d2784828501610cee565b91505092915050565b6000604082019050610d456000830185610c76565b610d526020830184610c85565b9392505050565b6000608082019050610d6e6000830187610c85565b610d7b6020830186610c85565b610d886040830185610c76565b610d956060830184610c76565b9594505050505056fea26469706673582212208444487afc943e87cf4e78fd6ecf127843450ba5dcd7fb96d8e6cb676e184ae964736f6c63430008140033",
  "linkReferences": {},
  "deployedLinkReferences": {}
}